{
  "contractName": "LaundererDetector",
  "abi": [
    {
      "anonymous": false,
      "inputs": [
        {
          "indexed": true,
          "internalType": "address",
          "name": "accountAddress",
          "type": "address"
        },
        {
          "indexed": false,
          "internalType": "uint256",
          "name": "amount",
          "type": "uint256"
        }
      ],
      "name": "LogDepositMade",
      "type": "event"
    },
    {
      "anonymous": false,
      "inputs": [
        {
          "indexed": true,
          "internalType": "address",
          "name": "accountAddress",
          "type": "address"
        },
        {
          "indexed": false,
          "internalType": "uint256",
          "name": "amount",
          "type": "uint256"
        }
      ],
      "name": "LogWithdrawMade",
      "type": "event"
    },
    {
      "constant": false,
      "inputs": [
        {
          "internalType": "uint256",
          "name": "amount",
          "type": "uint256"
        }
      ],
      "name": "withdraw",
      "outputs": [],
      "payable": false,
      "stateMutability": "nonpayable",
      "type": "function"
    },
    {
      "constant": false,
      "inputs": [
        {
          "internalType": "uint256",
          "name": "amount",
          "type": "uint256"
        }
      ],
      "name": "deposit",
      "outputs": [],
      "payable": true,
      "stateMutability": "payable",
      "type": "function"
    },
    {
      "constant": true,
      "inputs": [],
      "name": "getBalance",
      "outputs": [
        {
          "internalType": "uint256",
          "name": "",
          "type": "uint256"
        }
      ],
      "payable": false,
      "stateMutability": "view",
      "type": "function"
    },
    {
      "constant": true,
      "inputs": [],
      "name": "getThreshold",
      "outputs": [
        {
          "internalType": "uint256",
          "name": "",
          "type": "uint256"
        }
      ],
      "payable": false,
      "stateMutability": "view",
      "type": "function"
    },
    {
      "constant": false,
      "inputs": [
        {
          "internalType": "uint256",
          "name": "newthreshold",
          "type": "uint256"
        }
      ],
      "name": "setThreshold",
      "outputs": [],
      "payable": false,
      "stateMutability": "nonpayable",
      "type": "function"
    },
    {
      "constant": false,
      "inputs": [],
      "name": "potentialLaunderers",
      "outputs": [
        {
          "internalType": "address[]",
          "name": "",
          "type": "address[]"
        }
      ],
      "payable": false,
      "stateMutability": "nonpayable",
      "type": "function"
    },
    {
      "constant": true,
      "inputs": [],
      "name": "getHugeTransactors",
      "outputs": [
        {
          "internalType": "address[]",
          "name": "",
          "type": "address[]"
        },
        {
          "internalType": "uint256[]",
          "name": "",
          "type": "uint256[]"
        }
      ],
      "payable": false,
      "stateMutability": "view",
      "type": "function"
    }
  ],
  "bytecode": "0x6080604052670de0b6b3a76400006004556c3025f39ef241c56cd2e7c4000060055534801561002d57600080fd5b5061077f8061003d6000396000f3fe6080604052600436106100705760003560e01c8063af3dc4191161004e578063af3dc41914610116578063b6b55f2514610182578063e75235b8146101b0578063f3ac9670146101db57610070565b806312065fe0146100755780632e1a7d4d146100a0578063960bfe04146100db575b600080fd5b34801561008157600080fd5b5061008a61028f565b6040518082815260200191505060405180910390f35b3480156100ac57600080fd5b506100d9600480360360208110156100c357600080fd5b8101908080359060200190929190505050610297565b005b3480156100e757600080fd5b50610114600480360360208110156100fe57600080fd5b81019080803590602001909291905050506103a2565b005b34801561012257600080fd5b5061012b6103ac565b6040518080602001828103825283818151815260200191508051906020019060200280838360005b8381101561016e578082015181840152602081019050610153565b505050509050019250505060405180910390f35b6101ae6004803603602081101561019857600080fd5b8101908080359060200190929190505050610458565b005b3480156101bc57600080fd5b506101c56105b8565b6040518082815260200191505060405180910390f35b3480156101e757600080fd5b506101f06105cc565b604051808060200180602001838103835285818151815260200191508051906020019060200280838360005b8381101561023757808201518184015260208101905061021c565b50505050905001838103825284818151815260200191508051906020019060200280838360005b8381101561027957808201518184015260208101905061025e565b5050505090500194505050505060405180910390f35b600047905090565b804710156102a457600080fd5b3373ffffffffffffffffffffffffffffffffffffffff166108fc829081150290604051600060405180830381858888f193505050501580156102ea573d6000803e3d6000fd5b5060013390806001815401808255809150509060018203906000526020600020016000909192909190916101000a81548173ffffffffffffffffffffffffffffffffffffffff021916908373ffffffffffffffffffffffffffffffffffffffff160217905550503373ffffffffffffffffffffffffffffffffffffffff167f5e0adeef7e7b24a7c2e0bf7c9947ca44b57e5b87a84b6c9848cb42247104e7fd826040518082815260200191505060405180910390a250565b8060048190555050565b60606005544711156103cc57600160009080546103ca9291906106b5565b505b600080548060200260200160405190810160405280929190818152602001828054801561044e57602002820191906000526020600020905b8160009054906101000a900473ffffffffffffffffffffffffffffffffffffffff1673ffffffffffffffffffffffffffffffffffffffff1681526020019060010190808311610404575b5050505050905090565b80341461046457600080fd5b60013390806001815401808255809150509060018203906000526020600020016000909192909190916101000a81548173ffffffffffffffffffffffffffffffffffffffff021916908373ffffffffffffffffffffffffffffffffffffffff160217905550506004548111156105675760023390806001815401808255809150509060018203906000526020600020016000909192909190916101000a81548173ffffffffffffffffffffffffffffffffffffffff021916908373ffffffffffffffffffffffffffffffffffffffff1602179055505060038190806001815401808255809150509060018203906000526020600020016000909192909190915055505b3373ffffffffffffffffffffffffffffffffffffffff167fa8126f7572bb1fdeae5b5aa9ec126438b91f658a07873f009d041ae690f3a193826040518082815260200191505060405180910390a250565b60006001600454816105c657fe5b04905090565b606080600260038180548060200260200160405190810160405280929190818152602001828054801561065457602002820191906000526020600020905b8160009054906101000a900473ffffffffffffffffffffffffffffffffffffffff1673ffffffffffffffffffffffffffffffffffffffff168152602001906001019080831161060a575b50505050509150808054806020026020016040519081016040528092919081815260200182805480156106a657602002820191906000526020600020905b815481526020019060010190808311610692575b50505050509050915091509091565b8280548282559060005260206000209081019282156106f65760005260206000209182015b828111156106f55782548255916001019190600101906106da565b5b5090506107039190610707565b5090565b61074791905b8082111561074357600081816101000a81549073ffffffffffffffffffffffffffffffffffffffff02191690555060010161070d565b5090565b9056fea265627a7a72315820b1b2be54d85dadeb164c1c01ad83d81a1783213544b22658d9d9eed92acde13764736f6c63430005100032",
  "source": "// SPDX-License-Identifier: GPL-3.0\r\n\r\npragma solidity >=0.5.16 <0.8.0;\r\n\r\ncontract LaundererDetector {\r\n    address[] private potential_launderers;\r\n    address[] private transactors;\r\n    address[] private hugeTransactors;\r\n    uint[] private amountHuge;\r\n    uint private threshold = 10**18;\r\n    uint private maxSave = 50**18;\r\n    event LogDepositMade(address indexed accountAddress, uint amount);\r\n    event LogWithdrawMade(address indexed accountAddress, uint amount);\r\n    \r\n    function withdraw(uint256 amount) public {       \r\n        require(address(this).balance >= amount);\r\n        msg.sender.transfer(amount);\r\n        transactors.push(msg.sender);\r\n\r\n        emit LogWithdrawMade(msg.sender, amount);\r\n    }\r\n\r\n    function deposit(uint256 amount) public payable {\r\n        require(msg.value == amount);\r\n        transactors.push(msg.sender);\r\n\r\n        if(amount > threshold){\r\n            hugeTransactors.push(msg.sender);\r\n            amountHuge.push(amount);\r\n        }\r\n                    \r\n        emit LogDepositMade(msg.sender, amount);\r\n    }\r\n\r\n    function getBalance() public view returns (uint256) {\r\n        return address(this).balance;\r\n    }\r\n\r\n    function getThreshold() public view returns (uint) {\r\n        return threshold / (1**18);\r\n    }\r\n\r\n    function setThreshold(uint256 newthreshold) public {\r\n        threshold = newthreshold;\r\n    }\r\n\r\n    function potentialLaunderers() public returns (address[] memory) {\r\n        if(address(this).balance > maxSave)\r\n            potential_launderers = transactors;\r\n        \r\n        return potential_launderers;\r\n    }\r\n\r\n    function getHugeTransactors() public view returns (address[] memory, uint[] memory) {\r\n        return (hugeTransactors, amountHuge);\r\n    }\r\n}",
  "sourcePath": "C:/Users/mango/Documents/BlockchainProject/contracts/Bank.sol",
  "compiler": {
    "name": "solc",
    "version": "0.5.16+commit.9c3226ce.Emscripten.clang"
  },
  "schemaVersion": "3.3.3",
  "updatedAt": "2020-12-30T13:22:32.773Z",
  "networkType": "ethereum",
  "devdoc": {
    "methods": {}
  },
  "userdoc": {
    "methods": {}
  }
}