{
  "contractName": "LaundererDetector",
  "abi": [
    {
      "inputs": [],
      "payable": true,
      "stateMutability": "payable",
      "type": "constructor"
    },
    {
      "anonymous": false,
      "inputs": [
        {
          "indexed": true,
          "internalType": "address",
          "name": "accountAddress",
          "type": "address"
        },
        {
          "indexed": false,
          "internalType": "uint256",
          "name": "amount",
          "type": "uint256"
        }
      ],
      "name": "LogDepositMade",
      "type": "event"
    },
    {
      "anonymous": false,
      "inputs": [
        {
          "indexed": true,
          "internalType": "address",
          "name": "accountAddress",
          "type": "address"
        },
        {
          "indexed": false,
          "internalType": "uint256",
          "name": "amount",
          "type": "uint256"
        }
      ],
      "name": "LogWithdrawMade",
      "type": "event"
    },
    {
      "constant": true,
      "inputs": [
        {
          "internalType": "address",
          "name": "",
          "type": "address"
        }
      ],
      "name": "accBalance",
      "outputs": [
        {
          "internalType": "uint256",
          "name": "",
          "type": "uint256"
        }
      ],
      "payable": false,
      "stateMutability": "view",
      "type": "function"
    },
    {
      "constant": false,
      "inputs": [
        {
          "internalType": "uint256",
          "name": "amount",
          "type": "uint256"
        }
      ],
      "name": "withdraw",
      "outputs": [],
      "payable": false,
      "stateMutability": "nonpayable",
      "type": "function"
    },
    {
      "constant": false,
      "inputs": [],
      "name": "deposit",
      "outputs": [],
      "payable": true,
      "stateMutability": "payable",
      "type": "function"
    },
    {
      "constant": true,
      "inputs": [],
      "name": "getBalance",
      "outputs": [
        {
          "internalType": "uint256",
          "name": "",
          "type": "uint256"
        }
      ],
      "payable": false,
      "stateMutability": "view",
      "type": "function"
    },
    {
      "constant": true,
      "inputs": [],
      "name": "getAccountAmount",
      "outputs": [
        {
          "internalType": "uint256",
          "name": "",
          "type": "uint256"
        }
      ],
      "payable": false,
      "stateMutability": "view",
      "type": "function"
    },
    {
      "constant": true,
      "inputs": [],
      "name": "getThreshold",
      "outputs": [
        {
          "internalType": "uint256",
          "name": "",
          "type": "uint256"
        }
      ],
      "payable": false,
      "stateMutability": "view",
      "type": "function"
    },
    {
      "constant": false,
      "inputs": [
        {
          "internalType": "uint256",
          "name": "newthreshold",
          "type": "uint256"
        }
      ],
      "name": "setThreshold",
      "outputs": [],
      "payable": false,
      "stateMutability": "nonpayable",
      "type": "function"
    },
    {
      "constant": false,
      "inputs": [],
      "name": "potentialLaunderers",
      "outputs": [],
      "payable": false,
      "stateMutability": "nonpayable",
      "type": "function"
    },
    {
      "constant": true,
      "inputs": [],
      "name": "getpotentialLaunderers",
      "outputs": [
        {
          "internalType": "address[]",
          "name": "",
          "type": "address[]"
        }
      ],
      "payable": false,
      "stateMutability": "view",
      "type": "function"
    },
    {
      "constant": true,
      "inputs": [],
      "name": "getHugeTransactors",
      "outputs": [
        {
          "internalType": "address[]",
          "name": "",
          "type": "address[]"
        },
        {
          "internalType": "uint256[]",
          "name": "",
          "type": "uint256[]"
        }
      ],
      "payable": false,
      "stateMutability": "view",
      "type": "function"
    },
    {
      "constant": true,
      "inputs": [],
      "name": "getTransactors",
      "outputs": [
        {
          "internalType": "address[]",
          "name": "",
          "type": "address[]"
        }
      ],
      "payable": false,
      "stateMutability": "view",
      "type": "function"
    }
  ],
  "bytecode": "0x6080604052670de0b6b3a76400006004556c3025f39ef241c56cd2e7c4000060055533600860006101000a81548173ffffffffffffffffffffffffffffffffffffffff021916908373ffffffffffffffffffffffffffffffffffffffff1602179055506000600660006101000a81548160ff021916908360ff160217905550610be78061008d6000396000f3fe60806040526004361061009c5760003560e01c8063af3dc41911610064578063af3dc419146101d9578063cd4256a8146101f0578063d0e30db01461025c578063e75235b814610266578063f3ac967014610291578063f6ae79ac146103455761009c565b80631080c7cf146100a157806312065fe0146100cc5780632d26b309146100f75780632e1a7d4d14610163578063960bfe041461019e575b600080fd5b3480156100ad57600080fd5b506100b66103aa565b6040518082815260200191505060405180910390f35b3480156100d857600080fd5b506100e16103f1565b6040518082815260200191505060405180910390f35b34801561010357600080fd5b5061010c6103f9565b6040518080602001828103825283818151815260200191508051906020019060200280838360005b8381101561014f578082015181840152602081019050610134565b505050509050019250505060405180910390f35b34801561016f57600080fd5b5061019c6004803603602081101561018657600080fd5b8101908080359060200190929190505050610487565b005b3480156101aa57600080fd5b506101d7600480360360208110156101c157600080fd5b8101908080359060200190929190505050610648565b005b3480156101e557600080fd5b506101ee6106ac565b005b3480156101fc57600080fd5b50610205610761565b6040518080602001828103825283818151815260200191508051906020019060200280838360005b8381101561024857808201518184015260208101905061022d565b505050509050019250505060405180910390f35b610264610849565b005b34801561027257600080fd5b5061027b6109e9565b6040518082815260200191505060405180910390f35b34801561029d57600080fd5b506102a6610a57565b604051808060200180602001838103835285818151815260200191508051906020019060200280838360005b838110156102ed5780820151818401526020810190506102d2565b50505050905001838103825284818151815260200191508051906020019060200280838360005b8381101561032f578082015181840152602081019050610314565b5050505090500194505050505060405180910390f35b34801561035157600080fd5b506103946004803603602081101561036857600080fd5b81019080803573ffffffffffffffffffffffffffffffffffffffff169060200190929190505050610b9a565b6040518082815260200191505060405180910390f35b6000600760003373ffffffffffffffffffffffffffffffffffffffff1673ffffffffffffffffffffffffffffffffffffffff16815260200190815260200160002054905090565b600047905090565b6060600180548060200260200160405190810160405280929190818152602001828054801561047d57602002820191906000526020600020905b8160009054906101000a900473ffffffffffffffffffffffffffffffffffffffff1673ffffffffffffffffffffffffffffffffffffffff1681526020019060010190808311610433575b5050505050905090565b804710156104fd576040517f08c379a00000000000000000000000000000000000000000000000000000000081526004018080602001828103825260148152602001807f496e73756666696369656e742042616c616e636500000000000000000000000081525060200191505060405180910390fd5b3373ffffffffffffffffffffffffffffffffffffffff166108fc829081150290604051600060405180830381858888f19350505050158015610543573d6000803e3d6000fd5b5060013390806001815401808255809150509060018203906000526020600020016000909192909190916101000a81548173ffffffffffffffffffffffffffffffffffffffff021916908373ffffffffffffffffffffffffffffffffffffffff1602179055505080600760003373ffffffffffffffffffffffffffffffffffffffff1673ffffffffffffffffffffffffffffffffffffffff168152602001908152602001600020600082825403925050819055503373ffffffffffffffffffffffffffffffffffffffff167f5e0adeef7e7b24a7c2e0bf7c9947ca44b57e5b87a84b6c9848cb42247104e7fd826040518082815260200191505060405180910390a250565b600860009054906101000a900473ffffffffffffffffffffffffffffffffffffffff1673ffffffffffffffffffffffffffffffffffffffff163373ffffffffffffffffffffffffffffffffffffffff16146106a257600080fd5b8060048190555050565b60055447111561075f5760008090505b600581101561075d57600181815481106106d257fe5b9060005260206000200160009054906101000a900473ffffffffffffffffffffffffffffffffffffffff166000828154811061070a57fe5b9060005260206000200160006101000a81548173ffffffffffffffffffffffffffffffffffffffff021916908373ffffffffffffffffffffffffffffffffffffffff1602179055506001810190506106bc565b505b565b6060600860009054906101000a900473ffffffffffffffffffffffffffffffffffffffff1673ffffffffffffffffffffffffffffffffffffffff163373ffffffffffffffffffffffffffffffffffffffff16146107bd57600080fd5b600180548060200260200160405190810160405280929190818152602001828054801561083f57602002820191906000526020600020905b8160009054906101000a900473ffffffffffffffffffffffffffffffffffffffff1673ffffffffffffffffffffffffffffffffffffffff16815260200190600101908083116107f5575b5050505050905090565b60013390806001815401808255809150509060018203906000526020600020016000909192909190916101000a81548173ffffffffffffffffffffffffffffffffffffffff021916908373ffffffffffffffffffffffffffffffffffffffff1602179055505034600760003373ffffffffffffffffffffffffffffffffffffffff1673ffffffffffffffffffffffffffffffffffffffff168152602001908152602001600020600082825401925050819055506004543411156109995760023390806001815401808255809150509060018203906000526020600020016000909192909190916101000a81548173ffffffffffffffffffffffffffffffffffffffff021916908373ffffffffffffffffffffffffffffffffffffffff1602179055505060033490806001815401808255809150509060018203906000526020600020016000909192909190915055505b3373ffffffffffffffffffffffffffffffffffffffff167fa8126f7572bb1fdeae5b5aa9ec126438b91f658a07873f009d041ae690f3a193346040518082815260200191505060405180910390a2565b6000600860009054906101000a900473ffffffffffffffffffffffffffffffffffffffff1673ffffffffffffffffffffffffffffffffffffffff163373ffffffffffffffffffffffffffffffffffffffff1614610a4557600080fd5b600160045481610a5157fe5b04905090565b606080600860009054906101000a900473ffffffffffffffffffffffffffffffffffffffff1673ffffffffffffffffffffffffffffffffffffffff163373ffffffffffffffffffffffffffffffffffffffff1614610ab457600080fd5b6002600381805480602002602001604051908101604052809291908181526020018280548015610b3957602002820191906000526020600020905b8160009054906101000a900473ffffffffffffffffffffffffffffffffffffffff1673ffffffffffffffffffffffffffffffffffffffff1681526020019060010190808311610aef575b5050505050915080805480602002602001604051908101604052809291908181526020018280548015610b8b57602002820191906000526020600020905b815481526020019060010190808311610b77575b50505050509050915091509091565b6007602052806000526040600020600091509050548156fea265627a7a72315820e46b261017fef4f0e611a44e2b6924e24c3c4575363e82f4df9ddbdd1d7a2ed164736f6c63430005100032",
  "source": "// SPDX-License-Identifier: GPL-3.0\r\n\r\npragma solidity >=0.5.16 <0.8.0;\r\n\r\ncontract LaundererDetector {\r\n    address[] private potential_launderers;\r\n    address[] private transactors;\r\n    address[] private hugeTransactors;\r\n    uint[] private amountHuge;\r\n    uint private threshold = 10**18;\r\n    uint private maxSave = 50**18;\r\n    uint8 private ownerCount;\r\n    \r\n    event LogDepositMade(address indexed accountAddress, uint amount);\r\n    event LogWithdrawMade(address indexed accountAddress, uint amount);\r\n    mapping (address => uint256) public accBalance;\r\n    \r\n    address bankNegara;\r\n    \r\n    modifier onlyBankNegara(){\r\n        require(msg.sender == bankNegara);\r\n        _;\r\n        \r\n    }\r\n    \r\n    constructor() public payable {\r\n        bankNegara = msg.sender;\r\n        ownerCount = 0;\r\n        // accBalance = address(this).balance;\r\n        \r\n    }\r\n    \r\n    function withdraw(uint256 amount) public {       \r\n        require(address(this).balance >= amount, \"Insufficient Balance\");\r\n        msg.sender.transfer(amount);\r\n        transactors.push(msg.sender);\r\n        accBalance[msg.sender] -= amount;\r\n\r\n        emit LogWithdrawMade(msg.sender, amount);\r\n    }\r\n\r\n    function deposit() public payable {\r\n        // require(msg.value == amount);\r\n        transactors.push(msg.sender);\r\n        \r\n        accBalance[msg.sender] += msg.value;\r\n\r\n        if(msg.value > threshold){\r\n            hugeTransactors.push(msg.sender);\r\n            amountHuge.push(msg.value);\r\n        }\r\n                    \r\n        emit LogDepositMade(msg.sender, msg.value);\r\n    }\r\n\r\n    function getBalance() public view returns (uint256) {\r\n        return address(this).balance;\r\n        // return accBalance[msg.sender];\r\n    }\r\n    \r\n    function getAccountAmount() public view returns (uint256) {\r\n        // return address(this).balance;\r\n        return accBalance[msg.sender];\r\n    }\r\n\r\n    function getThreshold() public onlyBankNegara view returns (uint) {\r\n        return threshold / (1**18);\r\n    }\r\n\r\n    function setThreshold(uint256 newthreshold) public onlyBankNegara {\r\n        threshold = newthreshold;\r\n    }\r\n\r\n    function potentialLaunderers() public  {\r\n        if(address(this).balance > maxSave){\r\n            for (uint i=0; i < 5; i += 1) {\r\n                potential_launderers[i] = transactors[i];\r\n            }\r\n        }\r\n    }\r\n    \r\n    function getpotentialLaunderers() public onlyBankNegara view returns (address[] memory) {\r\n            return transactors;\r\n    }\r\n\r\n    function getHugeTransactors() public onlyBankNegara view returns (address[] memory, uint[] memory) {\r\n        return (hugeTransactors, amountHuge);\r\n    }\r\n    \r\n    function getTransactors() public view returns (address[] memory) {\r\n        return transactors;\r\n    }\r\n    \r\n}",
  "sourcePath": "C:/Users/mango/Documents/BlockchainProject/contracts/Bank.sol",
  "compiler": {
    "name": "solc",
    "version": "0.5.16+commit.9c3226ce.Emscripten.clang"
  },
  "schemaVersion": "3.3.3",
  "updatedAt": "2021-01-05T04:48:18.407Z",
  "networkType": "ethereum",
  "devdoc": {
    "methods": {}
  },
  "userdoc": {
    "methods": {}
  }
}