{
  "contractName": "LaundererDetector",
  "abi": [
    {
      "anonymous": false,
      "inputs": [
        {
          "indexed": true,
          "internalType": "address",
          "name": "accountAddress",
          "type": "address"
        },
        {
          "indexed": false,
          "internalType": "uint256",
          "name": "amount",
          "type": "uint256"
        }
      ],
      "name": "LogDepositMade",
      "type": "event"
    },
    {
      "anonymous": false,
      "inputs": [
        {
          "indexed": true,
          "internalType": "address",
          "name": "accountAddress",
          "type": "address"
        },
        {
          "indexed": false,
          "internalType": "uint256",
          "name": "amount",
          "type": "uint256"
        }
      ],
      "name": "LogWithdrawMade",
      "type": "event"
    },
    {
      "constant": false,
      "inputs": [
        {
          "internalType": "uint256",
          "name": "amount",
          "type": "uint256"
        }
      ],
      "name": "withdraw",
      "outputs": [],
      "payable": false,
      "stateMutability": "nonpayable",
      "type": "function"
    },
    {
      "constant": false,
      "inputs": [],
      "name": "deposit",
      "outputs": [],
      "payable": true,
      "stateMutability": "payable",
      "type": "function"
    },
    {
      "constant": true,
      "inputs": [],
      "name": "getBalance",
      "outputs": [
        {
          "internalType": "uint256",
          "name": "",
          "type": "uint256"
        }
      ],
      "payable": false,
      "stateMutability": "view",
      "type": "function"
    },
    {
      "constant": true,
      "inputs": [],
      "name": "getThreshold",
      "outputs": [
        {
          "internalType": "uint256",
          "name": "",
          "type": "uint256"
        }
      ],
      "payable": false,
      "stateMutability": "view",
      "type": "function"
    },
    {
      "constant": false,
      "inputs": [
        {
          "internalType": "uint256",
          "name": "newthreshold",
          "type": "uint256"
        }
      ],
      "name": "setThreshold",
      "outputs": [],
      "payable": false,
      "stateMutability": "nonpayable",
      "type": "function"
    },
    {
      "constant": true,
      "inputs": [],
      "name": "getPotentialLaunderer",
      "outputs": [
        {
          "internalType": "address[]",
          "name": "",
          "type": "address[]"
        }
      ],
      "payable": false,
      "stateMutability": "view",
      "type": "function"
    },
    {
      "constant": true,
      "inputs": [],
      "name": "getHugeTransactors",
      "outputs": [
        {
          "internalType": "address[]",
          "name": "",
          "type": "address[]"
        },
        {
          "internalType": "uint256[]",
          "name": "",
          "type": "uint256[]"
        }
      ],
      "payable": false,
      "stateMutability": "view",
      "type": "function"
    }
  ],
  "bytecode": "0x6080604052678ac7230489e800006004556802b5e3af16b188000060055534801561002957600080fd5b5061073b806100396000396000f3fe6080604052600436106100705760003560e01c8063960bfe041161004e578063960bfe0414610147578063d0e30db014610182578063e75235b81461018c578063f3ac9670146101b757610070565b80630c5a9f911461007557806312065fe0146100e15780632e1a7d4d1461010c575b600080fd5b34801561008157600080fd5b5061008a61026b565b6040518080602001828103825283818151815260200191508051906020019060200280838360005b838110156100cd5780820151818401526020810190506100b2565b505050509050019250505060405180910390f35b3480156100ed57600080fd5b506100f6610392565b6040518082815260200191505060405180910390f35b34801561011857600080fd5b506101456004803603602081101561012f57600080fd5b810190808035906020019092919050505061039a565b005b34801561015357600080fd5b506101806004803603602081101561016a57600080fd5b81019080803590602001909291905050506104a5565b005b61018a6104af565b005b34801561019857600080fd5b506101a1610602565b6040518082815260200191505060405180910390f35b3480156101c357600080fd5b506101cc61061d565b604051808060200180602001838103835285818151815260200191508051906020019060200280838360005b838110156102135780820151818401526020810190506101f8565b50505050905001838103825284818151815260200191508051906020019060200280838360005b8381101561025557808201518184015260208101905061023a565b5050505090500194505050505060405180910390f35b60606005544711156103055760018054806020026020016040519081016040528092919081815260200182805480156102f957602002820191906000526020600020905b8160009054906101000a900473ffffffffffffffffffffffffffffffffffffffff1673ffffffffffffffffffffffffffffffffffffffff16815260200190600101908083116102af575b5050505050905061038f565b600080548060200260200160405190810160405280929190818152602001828054801561038757602002820191906000526020600020905b8160009054906101000a900473ffffffffffffffffffffffffffffffffffffffff1673ffffffffffffffffffffffffffffffffffffffff168152602001906001019080831161033d575b505050505090505b90565b600047905090565b804710156103a757600080fd5b3373ffffffffffffffffffffffffffffffffffffffff166108fc829081150290604051600060405180830381858888f193505050501580156103ed573d6000803e3d6000fd5b5060013390806001815401808255809150509060018203906000526020600020016000909192909190916101000a81548173ffffffffffffffffffffffffffffffffffffffff021916908373ffffffffffffffffffffffffffffffffffffffff160217905550503373ffffffffffffffffffffffffffffffffffffffff167f5e0adeef7e7b24a7c2e0bf7c9947ca44b57e5b87a84b6c9848cb42247104e7fd826040518082815260200191505060405180910390a250565b8060048190555050565b60013390806001815401808255809150509060018203906000526020600020016000909192909190916101000a81548173ffffffffffffffffffffffffffffffffffffffff021916908373ffffffffffffffffffffffffffffffffffffffff160217905550506004543411156105b25760023390806001815401808255809150509060018203906000526020600020016000909192909190916101000a81548173ffffffffffffffffffffffffffffffffffffffff021916908373ffffffffffffffffffffffffffffffffffffffff1602179055505060033490806001815401808255809150509060018203906000526020600020016000909192909190915055505b3373ffffffffffffffffffffffffffffffffffffffff167fa8126f7572bb1fdeae5b5aa9ec126438b91f658a07873f009d041ae690f3a193346040518082815260200191505060405180910390a2565b6000670de0b6b3a76400006004548161061757fe5b04905090565b60608060026003818054806020026020016040519081016040528092919081815260200182805480156106a557602002820191906000526020600020905b8160009054906101000a900473ffffffffffffffffffffffffffffffffffffffff1673ffffffffffffffffffffffffffffffffffffffff168152602001906001019080831161065b575b50505050509150808054806020026020016040519081016040528092919081815260200182805480156106f757602002820191906000526020600020905b8154815260200190600101908083116106e3575b5050505050905091509150909156fea265627a7a72315820c3b3fe2d75aed3770da47a8f1ff61145d6284385b7e990d9bd8fef2dbd82032b64736f6c63430005100032",
  "source": "// SPDX-License-Identifier: GPL-3.0\r\n\r\npragma solidity >=0.5.16 <0.8.0;\r\n\r\ncontract LaundererDetector {\r\n    address[] private empty;\r\n    address[] private transactors;\r\n    address[] private hugeTransactors;\r\n    uint[] private amountHuge;\r\n    uint private threshold = 10 * 10**18;\r\n    uint private maxSave = 50 * 10**18;\r\n    event LogDepositMade(address indexed accountAddress, uint amount);\r\n    event LogWithdrawMade(address indexed accountAddress, uint amount);\r\n    \r\n    function withdraw(uint256 amount) public {       \r\n        require(address(this).balance >= amount);\r\n        msg.sender.transfer(amount);\r\n        transactors.push(msg.sender);\r\n\r\n        emit LogWithdrawMade(msg.sender, amount);\r\n    }\r\n\r\n    function deposit() public payable {\r\n        //require(msg.value == amount);\r\n        transactors.push(msg.sender);\r\n\r\n        if(msg.value > threshold){\r\n            hugeTransactors.push(msg.sender);\r\n            amountHuge.push(msg.value);\r\n        }\r\n                    \r\n        emit LogDepositMade(msg.sender, msg.value);\r\n    }\r\n\r\n    function getBalance() public view returns (uint256) {\r\n        return address(this).balance;\r\n    }\r\n\r\n    function getThreshold() public view returns (uint) {\r\n        return threshold / (10**18);\r\n    }\r\n\r\n    function setThreshold(uint256 newthreshold) public {\r\n        threshold = newthreshold;\r\n    }\r\n\r\n    // function potentialLaunderers() public  {\r\n    //     if(address(this).balance > maxSave)\r\n    //         potential_launderers = transactors;\r\n        \r\n    // }\r\n    \r\n    function getPotentialLaunderer() public view returns (address[] memory){\r\n        if(address(this).balance > maxSave)\r\n            return transactors;\r\n        \r\n        else\r\n            return empty;\r\n    }\r\n    \r\n    function getHugeTransactors() public view returns (address[] memory, uint[] memory) {\r\n        return (hugeTransactors, amountHuge);\r\n    }\r\n}",
  "sourcePath": "D:/Editing Software/Github/BlockchainProject/contracts/Bank.sol",
  "compiler": {
    "name": "solc",
    "version": "0.5.16+commit.9c3226ce.Emscripten.clang"
  },
  "schemaVersion": "3.3.2",
  "updatedAt": "2021-01-05T06:09:22.726Z",
  "networkType": "ethereum",
  "devdoc": {
    "methods": {}
  },
  "userdoc": {
    "methods": {}
  }
}