{
  "contractName": "LaundererDetector",
  "abi": [
    {
      "inputs": [],
      "payable": true,
      "stateMutability": "payable",
      "type": "constructor"
    },
    {
      "anonymous": false,
      "inputs": [
        {
          "indexed": true,
          "internalType": "address",
          "name": "accountAddress",
          "type": "address"
        },
        {
          "indexed": false,
          "internalType": "uint256",
          "name": "amount",
          "type": "uint256"
        }
      ],
      "name": "LogDepositMade",
      "type": "event"
    },
    {
      "anonymous": false,
      "inputs": [
        {
          "indexed": true,
          "internalType": "address",
          "name": "accountAddress",
          "type": "address"
        },
        {
          "indexed": false,
          "internalType": "uint256",
          "name": "amount",
          "type": "uint256"
        }
      ],
      "name": "LogWithdrawMade",
      "type": "event"
    },
    {
      "constant": true,
      "inputs": [
        {
          "internalType": "address",
          "name": "",
          "type": "address"
        }
      ],
      "name": "accBalance",
      "outputs": [
        {
          "internalType": "uint256",
          "name": "",
          "type": "uint256"
        }
      ],
      "payable": false,
      "stateMutability": "view",
      "type": "function"
    },
    {
      "constant": false,
      "inputs": [
        {
          "internalType": "uint256",
          "name": "amount",
          "type": "uint256"
        }
      ],
      "name": "withdraw",
      "outputs": [],
      "payable": false,
      "stateMutability": "nonpayable",
      "type": "function"
    },
    {
      "constant": false,
      "inputs": [],
      "name": "deposit",
      "outputs": [],
      "payable": true,
      "stateMutability": "payable",
      "type": "function"
    },
    {
      "constant": true,
      "inputs": [],
      "name": "getBalance",
      "outputs": [
        {
          "internalType": "uint256",
          "name": "",
          "type": "uint256"
        }
      ],
      "payable": false,
      "stateMutability": "view",
      "type": "function"
    },
    {
      "constant": true,
      "inputs": [],
      "name": "getAccountAmount",
      "outputs": [
        {
          "internalType": "uint256",
          "name": "",
          "type": "uint256"
        }
      ],
      "payable": false,
      "stateMutability": "view",
      "type": "function"
    },
    {
      "constant": true,
      "inputs": [],
      "name": "getThreshold",
      "outputs": [
        {
          "internalType": "uint256",
          "name": "",
          "type": "uint256"
        }
      ],
      "payable": false,
      "stateMutability": "view",
      "type": "function"
    },
    {
      "constant": false,
      "inputs": [
        {
          "internalType": "uint256",
          "name": "newthreshold",
          "type": "uint256"
        }
      ],
      "name": "setThreshold",
      "outputs": [],
      "payable": false,
      "stateMutability": "nonpayable",
      "type": "function"
    },
    {
      "constant": true,
      "inputs": [],
      "name": "getpotentialLaunderers",
      "outputs": [
        {
          "internalType": "address[]",
          "name": "",
          "type": "address[]"
        }
      ],
      "payable": false,
      "stateMutability": "view",
      "type": "function"
    },
    {
      "constant": true,
      "inputs": [],
      "name": "getHugeTransactors",
      "outputs": [
        {
          "internalType": "address[]",
          "name": "",
          "type": "address[]"
        },
        {
          "internalType": "uint256[]",
          "name": "",
          "type": "uint256[]"
        }
      ],
      "payable": false,
      "stateMutability": "view",
      "type": "function"
    },
    {
      "constant": true,
      "inputs": [],
      "name": "getTransactors",
      "outputs": [
        {
          "internalType": "address[]",
          "name": "",
          "type": "address[]"
        }
      ],
      "payable": false,
      "stateMutability": "view",
      "type": "function"
    }
  ],
  "bytecode": "0x6080604052678ac7230489e800006004556802b5e3af16b188000060055533600860006101000a81548173ffffffffffffffffffffffffffffffffffffffff021916908373ffffffffffffffffffffffffffffffffffffffff1602179055506000600660006101000a81548160ff021916908360ff160217905550610bd8806100896000396000f3fe6080604052600436106100915760003560e01c8063cd4256a811610059578063cd4256a8146101ce578063d0e30db01461023a578063e75235b814610244578063f3ac96701461026f578063f6ae79ac1461032357610091565b80631080c7cf1461009657806312065fe0146100c15780632d26b309146100ec5780632e1a7d4d14610158578063960bfe0414610193575b600080fd5b3480156100a257600080fd5b506100ab610388565b6040518082815260200191505060405180910390f35b3480156100cd57600080fd5b506100d66103cf565b6040518082815260200191505060405180910390f35b3480156100f857600080fd5b506101016103d7565b6040518080602001828103825283818151815260200191508051906020019060200280838360005b83811015610144578082015181840152602081019050610129565b505050509050019250505060405180910390f35b34801561016457600080fd5b506101916004803603602081101561017b57600080fd5b8101908080359060200190929190505050610465565b005b34801561019f57600080fd5b506101cc600480360360208110156101b657600080fd5b810190808035906020019092919050505061064e565b005b3480156101da57600080fd5b506101e36106b2565b6040518080602001828103825283818151815260200191508051906020019060200280838360005b8381101561022657808201518184015260208101905061020b565b505050509050019250505060405180910390f35b610242610833565b005b34801561025057600080fd5b506102596109d3565b6040518082815260200191505060405180910390f35b34801561027b57600080fd5b50610284610a48565b604051808060200180602001838103835285818151815260200191508051906020019060200280838360005b838110156102cb5780820151818401526020810190506102b0565b50505050905001838103825284818151815260200191508051906020019060200280838360005b8381101561030d5780820151818401526020810190506102f2565b5050505090500194505050505060405180910390f35b34801561032f57600080fd5b506103726004803603602081101561034657600080fd5b81019080803573ffffffffffffffffffffffffffffffffffffffff169060200190929190505050610b8b565b6040518082815260200191505060405180910390f35b6000600760003373ffffffffffffffffffffffffffffffffffffffff1673ffffffffffffffffffffffffffffffffffffffff16815260200190815260200160002054905090565b600047905090565b6060600180548060200260200160405190810160405280929190818152602001828054801561045b57602002820191906000526020600020905b8160009054906101000a900473ffffffffffffffffffffffffffffffffffffffff1673ffffffffffffffffffffffffffffffffffffffff1681526020019060010190808311610411575b5050505050905090565b670de0b6b3a764000081024710156104e5576040517f08c379a00000000000000000000000000000000000000000000000000000000081526004018080602001828103825260148152602001807f496e73756666696369656e742042616c616e636500000000000000000000000081525060200191505060405180910390fd5b3373ffffffffffffffffffffffffffffffffffffffff166108fc670de0b6b3a764000083029081150290604051600060405180830381858888f19350505050158015610535573d6000803e3d6000fd5b5060013390806001815401808255809150509060018203906000526020600020016000909192909190916101000a81548173ffffffffffffffffffffffffffffffffffffffff021916908373ffffffffffffffffffffffffffffffffffffffff16021790555050670de0b6b3a76400008102600760003373ffffffffffffffffffffffffffffffffffffffff1673ffffffffffffffffffffffffffffffffffffffff168152602001908152602001600020600082825403925050819055503373ffffffffffffffffffffffffffffffffffffffff167f5e0adeef7e7b24a7c2e0bf7c9947ca44b57e5b87a84b6c9848cb42247104e7fd670de0b6b3a764000083026040518082815260200191505060405180910390a250565b600860009054906101000a900473ffffffffffffffffffffffffffffffffffffffff1673ffffffffffffffffffffffffffffffffffffffff163373ffffffffffffffffffffffffffffffffffffffff16146106a857600080fd5b8060048190555050565b6060600860009054906101000a900473ffffffffffffffffffffffffffffffffffffffff1673ffffffffffffffffffffffffffffffffffffffff163373ffffffffffffffffffffffffffffffffffffffff161461070e57600080fd5b6005544711156107a657600180548060200260200160405190810160405280929190818152602001828054801561079a57602002820191906000526020600020905b8160009054906101000a900473ffffffffffffffffffffffffffffffffffffffff1673ffffffffffffffffffffffffffffffffffffffff1681526020019060010190808311610750575b50505050509050610830565b600080548060200260200160405190810160405280929190818152602001828054801561082857602002820191906000526020600020905b8160009054906101000a900473ffffffffffffffffffffffffffffffffffffffff1673ffffffffffffffffffffffffffffffffffffffff16815260200190600101908083116107de575b505050505090505b90565b60013390806001815401808255809150509060018203906000526020600020016000909192909190916101000a81548173ffffffffffffffffffffffffffffffffffffffff021916908373ffffffffffffffffffffffffffffffffffffffff1602179055505034600760003373ffffffffffffffffffffffffffffffffffffffff1673ffffffffffffffffffffffffffffffffffffffff168152602001908152602001600020600082825401925050819055506004543411156109835760023390806001815401808255809150509060018203906000526020600020016000909192909190916101000a81548173ffffffffffffffffffffffffffffffffffffffff021916908373ffffffffffffffffffffffffffffffffffffffff1602179055505060033490806001815401808255809150509060018203906000526020600020016000909192909190915055505b3373ffffffffffffffffffffffffffffffffffffffff167fa8126f7572bb1fdeae5b5aa9ec126438b91f658a07873f009d041ae690f3a193346040518082815260200191505060405180910390a2565b6000600860009054906101000a900473ffffffffffffffffffffffffffffffffffffffff1673ffffffffffffffffffffffffffffffffffffffff163373ffffffffffffffffffffffffffffffffffffffff1614610a2f57600080fd5b670de0b6b3a764000060045481610a4257fe5b04905090565b606080600860009054906101000a900473ffffffffffffffffffffffffffffffffffffffff1673ffffffffffffffffffffffffffffffffffffffff163373ffffffffffffffffffffffffffffffffffffffff1614610aa557600080fd5b6002600381805480602002602001604051908101604052809291908181526020018280548015610b2a57602002820191906000526020600020905b8160009054906101000a900473ffffffffffffffffffffffffffffffffffffffff1673ffffffffffffffffffffffffffffffffffffffff1681526020019060010190808311610ae0575b5050505050915080805480602002602001604051908101604052809291908181526020018280548015610b7c57602002820191906000526020600020905b815481526020019060010190808311610b68575b50505050509050915091509091565b6007602052806000526040600020600091509050548156fea265627a7a72315820e4f7b728909032698ccb66094f9b6a0a1dc37fa99858576454de3170c717468664736f6c63430005100032",
  "source": "// SPDX-License-Identifier: GPL-3.0\r\n\r\npragma solidity >=0.5.16 <0.8.0;\r\n\r\ncontract LaundererDetector {\r\n    address[] private empty;\r\n    address[] private transactors;\r\n    address[] private hugeTransactors;\r\n    uint[] private amountHuge;\r\n    uint private threshold = 10 * 10**18;\r\n    uint private maxSave = 50 * 10**18;\r\n    uint8 private ownerCount;\r\n    \r\n    event LogDepositMade(address indexed accountAddress, uint amount);\r\n    event LogWithdrawMade(address indexed accountAddress, uint amount);\r\n    mapping (address => uint256) public accBalance;\r\n    \r\n    address bankNegara;\r\n    \r\n    modifier onlyBankNegara(){\r\n        require(msg.sender == bankNegara);\r\n        _;\r\n        \r\n    }\r\n    \r\n    constructor() public payable {\r\n        bankNegara = msg.sender;\r\n        ownerCount = 0;\r\n        // accBalance = address(this).balance;\r\n        \r\n    }\r\n    \r\n    function withdraw(uint256 amount) public {       \r\n        require(address(this).balance >= amount* 1 ether, \"Insufficient Balance\");\r\n        msg.sender.transfer(amount * 1 ether);\r\n        transactors.push(msg.sender);\r\n        accBalance[msg.sender] -= amount* 1 ether;\r\n\r\n        emit LogWithdrawMade(msg.sender, amount* 1 ether);\r\n    }\r\n\r\n    function deposit() public payable {\r\n        // require(msg.value == amount);\r\n        transactors.push(msg.sender);\r\n        \r\n        accBalance[msg.sender] += msg.value;\r\n\r\n        if(msg.value > threshold){\r\n            hugeTransactors.push(msg.sender);\r\n            amountHuge.push(msg.value);\r\n        }\r\n                    \r\n        emit LogDepositMade(msg.sender, msg.value);\r\n    }\r\n\r\n    function getBalance() public view returns (uint256) {\r\n        return address(this).balance;\r\n        // return accBalance[msg.sender];\r\n    }\r\n    \r\n    function getAccountAmount() public view returns (uint256) {\r\n        // return address(this).balance;\r\n        return accBalance[msg.sender];\r\n    }\r\n\r\n    function getThreshold() public onlyBankNegara view returns (uint) {\r\n        return threshold / (10**18);\r\n    }\r\n\r\n    function setThreshold(uint256 newthreshold) public onlyBankNegara {\r\n        threshold = newthreshold;\r\n    }\r\n\r\n    // function potentialLaunderers() public  {\r\n    //     if(address(this).balance > maxSave){\r\n    //         for (uint i=0; i < 5; i += 1) {\r\n    //             potential_launderers[i] = transactors[i];\r\n    //         }\r\n    //     }\r\n    // }\r\n    \r\n    function getpotentialLaunderers() public onlyBankNegara view returns (address[] memory) {\r\n        if (address(this).balance > maxSave)\r\n            return transactors;\r\n\r\n        else\r\n            return empty;\r\n    }\r\n\r\n    function getHugeTransactors() public onlyBankNegara view returns (address[] memory, uint[] memory) {\r\n        return (hugeTransactors, amountHuge);\r\n    }\r\n\r\n    function getTransactors() public view returns (address[] memory) {\r\n        return transactors;\r\n    }\r\n    \r\n    \r\n}",
  "sourcePath": "C:/Users/mango/Documents/BlockchainProject/contracts/Bank.sol",
  "compiler": {
    "name": "solc",
    "version": "0.5.16+commit.9c3226ce.Emscripten.clang"
  },
  "schemaVersion": "3.3.3",
  "updatedAt": "2021-01-18T06:16:46.376Z",
  "networkType": "ethereum",
  "devdoc": {
    "methods": {}
  },
  "userdoc": {
    "methods": {}
  }
}