{
  "contractName": "LaundererDetector",
  "abi": [
    {
      "anonymous": false,
      "inputs": [
        {
          "indexed": true,
          "internalType": "address",
          "name": "accountAddress",
          "type": "address"
        },
        {
          "indexed": false,
          "internalType": "uint256",
          "name": "amount",
          "type": "uint256"
        }
      ],
      "name": "LogDepositMade",
      "type": "event"
    },
    {
      "anonymous": false,
      "inputs": [
        {
          "indexed": true,
          "internalType": "address",
          "name": "accountAddress",
          "type": "address"
        },
        {
          "indexed": false,
          "internalType": "uint256",
          "name": "amount",
          "type": "uint256"
        }
      ],
      "name": "LogWithdrawMade",
      "type": "event"
    },
    {
      "constant": false,
      "inputs": [
        {
          "internalType": "uint256",
          "name": "amount",
          "type": "uint256"
        }
      ],
      "name": "withdraw",
      "outputs": [],
      "payable": false,
      "stateMutability": "nonpayable",
      "type": "function"
    },
    {
      "constant": false,
      "inputs": [],
      "name": "deposit",
      "outputs": [],
      "payable": true,
      "stateMutability": "payable",
      "type": "function"
    },
    {
      "constant": true,
      "inputs": [],
      "name": "getBalance",
      "outputs": [
        {
          "internalType": "uint256",
          "name": "",
          "type": "uint256"
        }
      ],
      "payable": false,
      "stateMutability": "view",
      "type": "function"
    },
    {
      "constant": true,
      "inputs": [],
      "name": "getThreshold",
      "outputs": [
        {
          "internalType": "uint256",
          "name": "",
          "type": "uint256"
        }
      ],
      "payable": false,
      "stateMutability": "view",
      "type": "function"
    },
    {
      "constant": false,
      "inputs": [
        {
          "internalType": "uint256",
          "name": "newthreshold",
          "type": "uint256"
        }
      ],
      "name": "setThreshold",
      "outputs": [],
      "payable": false,
      "stateMutability": "nonpayable",
      "type": "function"
    },
    {
      "constant": false,
      "inputs": [],
      "name": "potentialLaunderers",
      "outputs": [],
      "payable": false,
      "stateMutability": "nonpayable",
      "type": "function"
    },
    {
      "constant": true,
      "inputs": [],
      "name": "getPotentialLaunderer",
      "outputs": [
        {
          "internalType": "address[]",
          "name": "",
          "type": "address[]"
        }
      ],
      "payable": false,
      "stateMutability": "view",
      "type": "function"
    },
    {
      "constant": true,
      "inputs": [],
      "name": "getHugeTransactors",
      "outputs": [
        {
          "internalType": "address[]",
          "name": "",
          "type": "address[]"
        },
        {
          "internalType": "uint256[]",
          "name": "",
          "type": "uint256[]"
        }
      ],
      "payable": false,
      "stateMutability": "view",
      "type": "function"
    }
  ],
  "bytecode": "0x6080604052670de0b6b3a76400006004556c3025f39ef241c56cd2e7c4000060055534801561002d57600080fd5b506107728061003d6000396000f3fe60806040526004361061007b5760003560e01c8063af3dc4191161004e578063af3dc4191461018d578063d0e30db0146101a4578063e75235b8146101ae578063f3ac9670146101d95761007b565b80630c5a9f911461008057806312065fe0146100ec5780632e1a7d4d14610117578063960bfe0414610152575b600080fd5b34801561008c57600080fd5b5061009561028d565b6040518080602001828103825283818151815260200191508051906020019060200280838360005b838110156100d85780820151818401526020810190506100bd565b505050509050019250505060405180910390f35b3480156100f857600080fd5b5061010161031b565b6040518082815260200191505060405180910390f35b34801561012357600080fd5b506101506004803603602081101561013a57600080fd5b8101908080359060200190929190505050610323565b005b34801561015e57600080fd5b5061018b6004803603602081101561017557600080fd5b810190808035906020019092919050505061042e565b005b34801561019957600080fd5b506101a2610438565b005b6101ac610458565b005b3480156101ba57600080fd5b506101c36105ab565b6040518082815260200191505060405180910390f35b3480156101e557600080fd5b506101ee6105bf565b604051808060200180602001838103835285818151815260200191508051906020019060200280838360005b8381101561023557808201518184015260208101905061021a565b50505050905001838103825284818151815260200191508051906020019060200280838360005b8381101561027757808201518184015260208101905061025c565b5050505090500194505050505060405180910390f35b6060600080548060200260200160405190810160405280929190818152602001828054801561031157602002820191906000526020600020905b8160009054906101000a900473ffffffffffffffffffffffffffffffffffffffff1673ffffffffffffffffffffffffffffffffffffffff16815260200190600101908083116102c7575b5050505050905090565b600047905090565b8047101561033057600080fd5b3373ffffffffffffffffffffffffffffffffffffffff166108fc829081150290604051600060405180830381858888f19350505050158015610376573d6000803e3d6000fd5b5060013390806001815401808255809150509060018203906000526020600020016000909192909190916101000a81548173ffffffffffffffffffffffffffffffffffffffff021916908373ffffffffffffffffffffffffffffffffffffffff160217905550503373ffffffffffffffffffffffffffffffffffffffff167f5e0adeef7e7b24a7c2e0bf7c9947ca44b57e5b87a84b6c9848cb42247104e7fd826040518082815260200191505060405180910390a250565b8060048190555050565b60055447111561045657600160009080546104549291906106a8565b505b565b60013390806001815401808255809150509060018203906000526020600020016000909192909190916101000a81548173ffffffffffffffffffffffffffffffffffffffff021916908373ffffffffffffffffffffffffffffffffffffffff1602179055505060045434111561055b5760023390806001815401808255809150509060018203906000526020600020016000909192909190916101000a81548173ffffffffffffffffffffffffffffffffffffffff021916908373ffffffffffffffffffffffffffffffffffffffff1602179055505060033490806001815401808255809150509060018203906000526020600020016000909192909190915055505b3373ffffffffffffffffffffffffffffffffffffffff167fa8126f7572bb1fdeae5b5aa9ec126438b91f658a07873f009d041ae690f3a193346040518082815260200191505060405180910390a2565b60006001600454816105b957fe5b04905090565b606080600260038180548060200260200160405190810160405280929190818152602001828054801561064757602002820191906000526020600020905b8160009054906101000a900473ffffffffffffffffffffffffffffffffffffffff1673ffffffffffffffffffffffffffffffffffffffff16815260200190600101908083116105fd575b505050505091508080548060200260200160405190810160405280929190818152602001828054801561069957602002820191906000526020600020905b815481526020019060010190808311610685575b50505050509050915091509091565b8280548282559060005260206000209081019282156106e95760005260206000209182015b828111156106e85782548255916001019190600101906106cd565b5b5090506106f691906106fa565b5090565b61073a91905b8082111561073657600081816101000a81549073ffffffffffffffffffffffffffffffffffffffff021916905550600101610700565b5090565b9056fea265627a7a7231582087de127236bd468d8a3fae490355074ea595b94b1203cc6441a8a8fdf46cb14864736f6c63430005100032",
  "source": "// SPDX-License-Identifier: GPL-3.0\r\n\r\npragma solidity >=0.5.16 <0.8.0;\r\n\r\ncontract LaundererDetector {\r\n    address[] private potential_launderers;\r\n    address[] private transactors;\r\n    address[] private hugeTransactors;\r\n    uint[] private amountHuge;\r\n    uint private threshold = 10**18;\r\n    uint private maxSave = 50**18;\r\n    event LogDepositMade(address indexed accountAddress, uint amount);\r\n    event LogWithdrawMade(address indexed accountAddress, uint amount);\r\n    \r\n    function withdraw(uint256 amount) public {       \r\n        require(address(this).balance >= amount);\r\n        msg.sender.transfer(amount);\r\n        transactors.push(msg.sender);\r\n\r\n        emit LogWithdrawMade(msg.sender, amount);\r\n    }\r\n\r\n    function deposit() public payable {\r\n        //require(msg.value == amount);\r\n        transactors.push(msg.sender);\r\n\r\n        if(msg.value > threshold){\r\n            hugeTransactors.push(msg.sender);\r\n            amountHuge.push(msg.value);\r\n        }\r\n                    \r\n        emit LogDepositMade(msg.sender, msg.value);\r\n    }\r\n\r\n    function getBalance() public view returns (uint256) {\r\n        return address(this).balance;\r\n    }\r\n\r\n    function getThreshold() public view returns (uint) {\r\n        return threshold / (1**18);\r\n    }\r\n\r\n    function setThreshold(uint256 newthreshold) public {\r\n        threshold = newthreshold;\r\n    }\r\n\r\n    function potentialLaunderers() public  {\r\n        if(address(this).balance > maxSave)\r\n            potential_launderers = transactors;\r\n        \r\n    }\r\n    \r\n    function getPotentialLaunderer() public view returns (address[] memory){\r\n        return potential_launderers;\r\n    }\r\n    \r\n    function getHugeTransactors() public view returns (address[] memory, uint[] memory) {\r\n        return (hugeTransactors, amountHuge);\r\n    }\r\n}",
  "sourcePath": "D:/Editing Software/Github/BlockchainProject/contracts/Bank.sol",
  "compiler": {
    "name": "solc",
    "version": "0.5.16+commit.9c3226ce.Emscripten.clang"
  },
  "schemaVersion": "3.3.2",
  "updatedAt": "2021-01-05T04:23:18.497Z",
  "networkType": "ethereum",
  "devdoc": {
    "methods": {}
  },
  "userdoc": {
    "methods": {}
  }
}